:020000040000FA
:030000000200708B
:10004B000200D400000080FB120079B9000302000B
:10005B006AE479087804B800028004F709D8FC1226
:10006B0000AC12004E75D0007581BF0200537901B0
:10007B00227800800DEA2401FAEB3400FBEA4B7086
:10008B00F408E8C39950067A017B0080F02243FE06
:10009B000353FEF3D290D29175E43DD2AF75B80203
:1000AB0022120099C290D291780AE64660FAD2F0F9
:1000BB00A29030F001B39290D2F0A29130F001B344
:1000CB009291790112007C80DFC0E0C0D0E8C0E0E3
:1000DB00EAC0E0EBC0E0C0F075C0007808C3E6945E
:1000EB000A08E69400500E7808E62401F60874001E
:1000FB0036F618802078087600087600780AE646EF
:10010B007004D2F08002C2F0A2F0E433FA7B0078E4
:10011B000AF608EBF6D0F0D0E0FBD0E0FAD0E0F82E
:05012B00D0D0D0E0324D
:040000050000007087
:00000001FF
