:020000040000FA
:0300000002004BB0
:1000130002015A00000080FB120054B900030200E1
:1000230045E479407805B800028004F709D8FC78E4
:10003300219000577A1FBA00028007E493A3F608C1
:10004300DAF91200C512001675D0007581BF0200DF
:100053001B790122686479207465737400000000C1
:10006300000000000000000000000000000000008D
:1000730000000153C6BFE5BEA2E650FA53C6B8431B
:10008300BE0475F10075F33C43868043C50B43C240
:1000930022D2E943864043A884227C007D00801558
:1000A300E7F5C1740129F9A2E950FCC2E9EC240186
:1000B300FCED3400FDC3EC9AED9BA2D265D0334036
:1000C300DF2275FE03D290D29112007679211201BC
:1000D30067E9FA7B007843F608EBF67843E6FA081B
:1000E300E6FB792112009D8032783F7603784076D3
:1000F30000783FE664037023D291C2905386BF78A1
:1001030041E6FA08E6FB792112009D438640783FD9
:10011300760178417600087600D290783FE6640154
:1001230070CFC2917840E660C87840E6642360B936
:100133007841C3E6940A08E6940050AD79407841CB
:10014300E60886092421F8E7F67841E62401F60853
:10015300740036F6188096C0E0E8C28B7840A6C1DA
:10016300F8D0E032E9FAF8800108E670FCE8C39AB7
:02017300F9226F
:040000050000004BAC
:00000001FF
