:020000040000FA
:1000000002003B02029E00000080FB120044B90087
:1000100003020035E479457813B800028004F7093B
:10002000D8FC78219000477A24BA00028007E49334
:10003000A3F608DAF912041012000675D0007581D3
:10004000BF02000B790122E80300001A000000FF44
:10005000FFFFFF00013222040506070809689B061E
:10006000003F065B4F666D7D077F6FE4CFC0E0E425
:10007000CEC0E0E4CDC0E0E4CCC0E075F020C3E643
:1000800033F608E633F608E633F608E633F61818D2
:1000900018EC33FCED33FDEE33FEEF33FFC3EC978A
:1000A00009ED9709EE9709EF97191919400FFFEC21
:1000B00097FC09ED97FD09EE97FE191906D5F0BEDC
:1000C000ECF709EDF709EEF709EFF7191919D0E088
:1000D000FCD0E0FDD0E0FED0E0FF2260160808086A
:1000E000C6C313C618C613C618C613C618C613C689
:1000F000D5E0EA227009080808226016181818C608
:10010000C333C608C633C608C633C608C633C6D509
:10011000E0EA22E627F60809E637F60809E637F6A8
:100120000809E637F622E7F60809E7F60809E7F6D0
:100130000809E7F622CAC0E0E6F70908DAFAD0E0D3
:10014000FA22700422600D18C6C333C608C633C62F
:10015000D5E0F41822D083D082CEC0E0EFC0E0C05A
:10016000207808E608C0E0DEFAE473C0D074072FF8
:10017000D0D0F8D0E0F618DFFAD020D0E0FFD0E001
:10018000FE2274081201558A0C8B0D8C0E8D0F7493
:100190000A780C1200F479217808120126780C797B
:1001A0000812006B7406780C1200F4792578081296
:1001B0000126780C790812006BE50C90DF0BF0E556
:1001C0000EC50D90DF0AF0850D09E50990DF09F0F5
:1001D0007F0802016B90DF047405F090DF06740362
:1001E000F0A37406F090DF0C74F5F0A37483F0A311
:1001F0007403F090DF117415F090DF147418F0A3FD
:1002000014F090DF1C74E9F0A3742AF0A3E4F0A3C7
:10021000741FF090DF247431F0A37409F090DF2E86
:1002200074C0F012018290DF2E74C0F075E1047585
:10023000E10190DF3BE0640170F8C289227408128A
:100240000155E9FC60558C82AA828A088E097407E0
:100250007808120142F50AF50BEA75F03BA4FAA8FA
:10026000F0E4288A0CF50D3395E0F50EF50F7808CB
:10027000790C120113E5C6540778081200DB8508D3
:100280000C85090D850A0E850B0F79297808120156
:1002900013E50C450D450E450F70E30201D0C0E09B
:1002A000C0D0E8C0E0E9C0E07846E67845600AA63C
:1002B000D978467600784B802C7947E7C396784703
:1002C000500C7948E726F8A6D97847068019794571
:1002D000E7667009067849E6F8A6D9800A784AE602
:1002E000F8A6D978467601D0E0F9D0E0F8D0D0D0A1
:1002F000E0327402120155E9FF8A088B09ECFE789E
:1003000047760078457600C289D2A8D2AF53E9EF8C
:100310007848EFF67849A608784AA609EAF8760000
:10032000784AE6F87600784B76007846760175E1F3
:10033000028006790112023D1EE5E9A2E44017EEB3
:1003400070F1784BE6640170067EFF760080EA75F6
:10035000E104C2A8801675E10453E9EFC2A8A80918
:10036000E6A2E750077847E614F9800279007F0299
:1003700002016BE9FBEA7003790022C289C2A8532B
:10038000E9EF75E103A28950FCC2898AD97900801E
:100390000DA28950FCC289EB29F8E6F5D909E9C319
:1003A0009A40EEE5E9A2E450FA53E9EF75E1042240
:1003B00075FE3BE5F343FD30D290D29122C008C0D8
:1003C00009E9FAF8860875090008E6240878081291
:1003D0000142784DA60808A609090908E7F60908A8
:1003E000E7F60908E7F60908E7F60908E7F6090855
:1003F000E7F674082AF8860875090008E6240878E4
:10040000081201427855A60808A609D009D008228A
:10041000E581240CF581782D24F5F9740A12013553
:1004200053C6BFE5BEA2E650FA53C6B843BE041297
:1004300003B079377808120126AA08AB09AC0AADD7
:100440000B1201D575A8817900120580E58124F58C
:10045000F91203BDA29240127857E66401700B7640
:1004600000D2907A0A794D1203737CF0AB81E5815A
:1004700014FA24F6F91202F2E9784CF6E6640A70EE
:1004800019E58124F5F91203BD784FE6F9120595B7
:100490007851760178577601C290784C760080B416
:1004A0007800790080031204E1C3E89AE99B40F6E2
:1004B0007800790080031204E1C3E89AE99B40F6D2
:1004C0007800790080031204E1C3E89AE99B40F6C2
:1004D0007800790080031204E1C3E89AE99B40F6B2
:1004E00022E8240108E93400F922D293D2947A0553
:1004F0007B001204A0C2942212054E746480011481
:10050000A294500270F912055022D293C2947A0537
:100510007B001204A0D29422EEC0E0EFC0E0E9FF1D
:100520007A017B001204A07E08EFA2E75004D29467
:100530008002C294C333FFC2937A057B001204A0E9
:1005400012054E1EEE70E2D0E0FFD0E0FE22D29304
:100550007A057B001204A0C29322EEC0E0EFC0E057
:10056000E9FFEAFE1204EAEF12057012057880D75F
:10057000F91205181204F822EE12057012050A226B
:10058000EEC0E0E960047A5180027A0079481205F1
:100590005AD0E0FE22EEC0E0E9FE79011205807536
:1005A000F064EE84243BF8E6FA796812055AEE7599
:1005B000F06484E5F075F00A84243BF8E6FA796A81
:1005C00012055AEE75F00A84E5F0243BF8E6FA7954
:0305D0006C80BB81
:040000050000003BBC
:00000001FF
