:020000040000FA
:1000000002003B0202A000000080FB120044B90085
:1000100003020035E479547809B800028004F70936
:10002000D8FC78219000477A33BA00028007E49325
:10003000A3F608DAF912040212000675D0007581E1
:10004000BF02000B790122E80300001A000000FF44
:10005000FFFFFF6C656166006864792074657374E6
:100060000000000000000000000000000000000090
:10007000000000000000689B0600E4CFC0E0E4CE72
:10008000C0E0E4CDC0E0E4CCC0E075F020C3E633CE
:10009000F608E633F608E633F608E633F6181818DD
:1000A000EC33FCED33FDEE33FEEF33FFC3EC970989
:1000B000ED9709EE9709EF97191919400FFFEC9783
:1000C000FC09ED97FD09EE97FE191906D5F0BEEC77
:1000D000F709EDF709EEF709EFF7191919D0E0FC68
:1000E000D0E0FDD0E0FED0E0FF226016080808C690
:1000F000C313C618C613C618C613C618C613C6D56A
:10010000E0EA227009080808226016181818C6C309
:1001100033C608C633C608C633C608C633C6D5E0DC
:10012000EA22E627F60809E637F60809E637F60870
:1001300009E637F622E7F60809E7F60809E7F608C0
:1001400009E7F622700422600D18C6C333C608C63C
:1001500033C6D5E0F41822D083D082CEC0E0EFC001
:10016000E0C0207808E608C0E0DEFAE473C0D0748E
:10017000072FD0D0F8D0E0F618DFFAD020D0E0FF7B
:10018000D0E0FE2274081201578A0C8B0D8C0E8D64
:100190000F740A780C12010379217808120135785E
:1001A0000C790812007A7406780C1201037925780C
:1001B00008120135780C790812007AE50C90DF0BF3
:1001C000F0E50EC50D90DF0AF0850D09E50990DF19
:1001D00009F07F0802016D90DF047405F090DF06DE
:1001E0007403F0A37406F090DF0C74F5F0A374832D
:1001F000F0A37403F090DF117415F090DF147418FD
:10020000F0A314F090DF1C74E9F0A3742AF0A3E4C7
:10021000F0A3741FF090DF247431F0A37409F09000
:10022000DF2E74C0F012018490DF2E74C0F075E1EF
:100230000475E10190DF3BE0640170F8C28922742B
:1002400008120157E9FC60558C82AA828A088E093F
:1002500074077808120144F50AF50BEA75F03BA41F
:10026000FAA8F0E4288A0CF50D3395E0F50EF50FA9
:100270007808790C120122E5C6540778081200EAC2
:1002800085080C85090D850A0E850B0F79297808DC
:10029000120122E50C450D450E450F70E30201D217
:1002A000C0E0C0D0E8C0E0E9C0E0785B76017855F6
:1002B000E67854600AA6D978557600785A802C7969
:1002C00056E7C3967856500C7957E726F8A6D978A2
:1002D000560680197954E7667009067858E6F8A63C
:1002E000D9800A7859E6F8A6D978557601D0E0F990
:1002F000D0E0F8D0D0D0E0327402120157E9FF8A82
:10030000088B09ECFE7856760078547600C289D2C4
:10031000A8D2AF53E9EF7857EFF67858A608785986
:10032000A609EAF876007859E6F87600785A760059
:100330007855760175E1028006790112023F1EE5CB
:10034000E9A2E44017EE70F1785AE6640170067E87
:10035000FF760080EA75E104C2A8801675E10453B7
:10036000E9EFC2A8A809E6A2E750077856E614F913
:10037000800279007F0202016DE9FBEA70037900D7
:1003800022C289C2A853E9EF75E103A28950FCC2D9
:10039000898AD97900800DA28950FCC289EB29F89D
:1003A000E6F5D909E9C39A40EEE5E9A2E450FA532B
:1003B000E9EF75E1042253C6BFE5BEA2E650FA5349
:1003C000C6B843BE0475F10075F33C43868043C54F
:1003D0000B43C222D2E943864043A884227C007D9D
:1003E000008012E7F5C109A2E950FCC2E9EC240142
:1003F0000CED3400FDC3EC9AED9BA2D265D03340E6
:10040000E222E581240CF58153C6BFE5BEA2E65089
:10041000FA53C6B843BE0475FE03D290D291785BFE
:1004200076001203B67A0A7B0079321203DD795026
:100430007808120135AA08AB09AC0AAD0B1201D736
:1004400075A881785BE660097A057B00792D120337
:10045000DD7CF0AB81E58114FA24F6F91202F8E9AB
:10046000785CF6E6640A70196390037A0AE58124E1
:10047000F5F91203797A0A7B00E58124F5F9120374
:07048000DD785C760080BC12
:040000050000003BBC
:00000001FF
