:020000040000FA
:060000000200BB0203191F
:03001300020435AF
:03002B0002042F9D
:1000830002042B00000080FB1200C4B9000302002D
:10009300B5E4795D7815B800028004F709D8FC78D7
:1000A300419000C77A1CBA00028007E493A3F608C4
:1000B300DAF91204F612008675D0007581BF0200CA
:1000C3008B790122E80300001A000000FFFFFFFF05
:1000D300689B06000000000001000000040000000F
:1000E300C3E7960809E7960809E7960809E7962201
:1000F300E4CFC0E0E4CEC0E0E4CDC0E0E4CCC0E0B7
:1001030075F020C3E633F608E633F608E633F6085F
:10011300E633F6181818EC33FCED33FDEE33FEEF3F
:1001230033FFC3EC9709ED9709EE9709EF97191978
:1001330019400FFFEC97FC09ED97FD09EE97FE19A7
:100143001906D5F0BEECF709EDF709EEF709EFF75D
:10015300191919D0E0FCD0E0FDD0E0FED0E0FF2279
:100163006016080808C6C313C618C613C618C613F4
:10017300C618C613C6D5E0EA22700908080822602B
:1001830016181818C6C333C608C633C608C633C6FE
:1001930008C633C6D5E0EA22E627F60809E637F6AD
:1001A3000809E637F60809E637F622E7F60809E70D
:1001B300F60809E7F60809E7F622700422600D182D
:1001C300C6C333C608C633C6D5E0F41822D083D0DD
:1001D30082CEC0E0EFC0E0C0207821E608C0E0DEB8
:1001E300FAE473C0D074202FD0D0F8D0E0F618DF33
:1001F300FAD020D0E0FFD0E0FE2274081201D08AAA
:10020300258B268C278D28740A782512017C794149
:1002130078211201AE782579211200F3740678252E
:1002230012017C794578211201AE782579211200DB
:10023300F3E52590DF0BF0E527C52690DF0AF0856F
:100243002622E52290DF09F07F080201E690DF0411
:100253007405F090DF067403F0A37406F090DF0CCE
:1002630074F5F0A37483F0A37403F090DF11741595
:10027300F090DF147418F0A314F090DF1C74E9F00D
:10028300A3742AF0A3E4F0A3741FF090DF24743165
:10029300F0A37409F090DF2E74C0F01201FD90DF1B
:1002A3002E74C0F075E10475E10190DF3BE0640159
:1002B30070F8C2892274081201D0E9FC60558C825F
:1002C300AA828A218E22740778211201BDF523F5B3
:1002D30024EA75F03BA4FAA8F0E4288A25F526332E
:1002E30095E0F527F5287821792512019BE5C65479
:1002F30007782112016385212585222685232785F9
:1003030024287949782112019BE52545264527456F
:100313002870E302024BC0E0C0D0E8C0E0E9C0E0CF
:10032300785EE6785D600AA6D9785E7600786380A9
:100333002C795FE7C396785F500C7960E726F8A6BF
:10034300D9785F068019795DE7667009067861E6FA
:10035300F8A6D9800A7862E6F8A6D9785E7601D045
:10036300E0F9D0E0F8D0D0D0E03274021201D089A5
:10037300218A22EBFEECFF785F7600785D7600C27F
:1003830089D2A8D2AF53E9EF7860A6217861A6227B
:100393007862EEF6EAF876007862E6F8760078633B
:1003A3007600785E760175E102800679011202B863
:1003B3001FE5E9A2E44017EF70F17863E66401708A
:1003C300067FFF760080EA75E104C2A8801675E116
:1003D3000453E9EFC2A8EEF8E6A2E75007785FE618
:1003E30014F9800279007F020201E6E9FBEA700357
:1003F300790022C289C2A853E9EF75E103A28950AB
:10040300FCC2898AD97900800DA28950FCC289EB8C
:1004130029F8E6F5D909E9C39A40EEE5E9A2E450E3
:10042300FA53E9EF75E10422539BFC32C2C753A18F
:10043300FE32C0E0E8C28B7864A6C1F8D0E032781F
:100443000079008003120493C3E89AE99B40F6788D
:100453000079008003120493C3E89AE99B40F6787D
:100463000079008003120493C3E89AE99B40F6786D
:100473000079008003120493C3E89AE99B40F6785D
:100483000079008003120493C3E89AE99B40F622A3
:10049300E8240108E93400F92243FE0353FEF3D2B2
:1004A30090D2917868760808760108087648227910
:1004B30000A2937866400976017867060909092244
:1004C300E6640170127867E6C39464400109097811
:1004D300667600786776002290DF3BE0640170F86F
:1004E3007A0A79681203EEC2917A887B1312044266
:1004F300D29122E5812410F5817865760053C67F79
:1005030053C6BFE5BEA2E650FA53C6B843BE047550
:1005130091FF12049C794D78211201AEAA21AB22DE
:10052300AC23AD2412025090DF057408F085A2A21B
:10053300D2AD43A110D2AF53BEF843BE0143A204D0
:10054300438701E5BEA2E650FA75E10475E1018037
:1005530002C2907A647B001204421204B2E914606E
:100563000A14600A147009C29180051204DBD29147
:100573007951E58124FBF81201AE800A7955E581B2
:1005830024FBF812019BE58124FBF978591200E35F
:10059300501643A2047CF0AB81E58114FA24F2F9EE
:1005A30012036DE9640A70D4E58124FBF9785912CA
:0A05B30000E3786576004099809916
:04000005000000BB3C
:00000001FF
