:020000040000FA
:03000000020043B8
:10000B0002062D00000080FB12004CB90003020019
:10001B003DE479337802B800028004F709D8FC7804
:10002B002190004F7A12BA00028007E493A3F608DE
:10003B00DAF912063D12000E75D0007581BF020071
:10004B001379012220302E3056006666664000E0A0
:10005B00FF4400002041080808E630E71112052A8A
:10006B00120079080808C64480C6181818221818F8
:10007B0018E9799EC608CAC608CBC608CCC6C37099
:10008B00207996CACBCC7019798ECBCC701379862C
:10009B00CC700EF9802ACA33CACB33CBCC33CC33DA
:1000AB001930E7F2CCCBCA3350147004EA30E00DB0
:1000BB00E4CA3ACACB3BCBCC3CCC500209C3E913C4
:1000CB00C6CC182313C6CB18C6CA18C6F922120100
:1000DB001920F01430E72B74FFFCFBFA747F80229D
:1000EB00E4FCFBFA7480801AB48008BC00F2BB00FD
:1000FB00EF800F50EBF9E4C39AFAE49BFBE49CFC12
:10010B00E499C6CC18C6CB18C6CA18C6F922E4C9DE
:10011B00C608CAC608CBC6D3330308CCC63392F085
:10012B00C3947F402E94184019C9B90704CACBCC8D
:10013B00225025C309CA33CACB33CBCC33CC33D9EA
:10014B00F422F4600DC9CCC313CB13CBCA13CAD999
:10015B00F6CC22E4FCFBFA2214FCFBFA22E6C333B6
:10016B0018461846184622E7C3331947194719474B
:10017B0022181818E6084608700AE608C3337005FB
:10018B00E633F4220822191919E7094709700AE71F
:10019B0009C3337005E733F4220922E6084608C386
:1001AB00134608336002E633F422E7094709C31309
:1001BB004709336002E733F422001201A6604F12A5
:1001CB0001B56012E7548066F612017C70111201C2
:1001DB0072703B090909F4F618F618F618F6221294
:1001EB000191701512016808080860EAE6447FF671
:1001FB0018768018E4F618F62212016860161201C0
:10020B00727012E4F608F608F608E65480F609094F
:10021B000918181822EAC0E0EBC0E0ECC0E0EDC012
:10022B00E0E687F0A4FBACF008E687F0A42CFCE436
:10023B0035F0FA1809E687F0A42C4B60027401CA5A
:10024B0035F0FCE433FB09E687F0D2F7A42CCB3571
:10025B00F0FC1908E687F0A42BCC35F0FBE433FD5A
:10026B000819E687F0D2E7A42C4ACB35F0CD340041
:10027B00FC09E687F0D2E7A42DCC35F0FDE433FA88
:10028B000918E687F0D2F7A42CCD35F0CA3400FC60
:10029B0008E687F0D2E7D2F7A42ACC35F07A7E2095
:1002AB00E70B0ACB33CBCD33CDCC33CC33CB335065
:1002BB00147004ED30E00ED2F1E4CD3DCDCC3CCC4E
:1002CB003B5005DA05C2F1EB547FC63308E6339297
:1002DB00F0FBE73309E733C39A502D2B70190C0D44
:1002EB004C4D70151806E608C333700D20F10AA2A9
:1002FB00F013F6E418800B4024E4F630F00276801D
:10030B0018F618F618F68024D33B14501074FFA27D
:10031B00F013F6187680E418F618F6800FA2F01397
:10032B00F618E63303F618ECF618EDF6D0E0FDD030
:10033B00E0FCD0E0FBD0E0FA221201A67004181802
:10034B0018221201B5700D74FFF61819F61819F66C
:10035B001819F622E7548066F6120168700F120125
:10036B007270F014F608F608F608F680D1120172D6
:10037B00700CF608F608768008E6447F80EC1201D4
:10038B0094700C12017F60BFE65480F6E480BB12C0
:10039B00017F700519191980A5E869700C763F1853
:1003AB00768018F618F6E8F922E6CDC0E018ECC016
:1003BB00E0E633CD33CDD313F6E719FCE719193348
:1003CB00CC33C3947F400ECD9D502408E65480F669
:1003DB00E418F6800FF4043D14501408E6447FF63D
:1003EB00187680E418F618F6D0E0FCD0E0FD22CCAD
:1003FB00D313CCFD18E4C6CBC0E018E4C6CAC0E0EA
:10040B000808ED08C633E613F618E433C675F00397
:10041B00C3CA97CA09CB97CB199C40047D08802E81
:10042B00BD00030204ED16B6FF050606081618C339
:10043B00CA33CACB33CB33CA27CA09CB37CB193C08
:10044B00C37D08803E187D0820E75CC633C6CA33DF
:10045B00CACB33CB33DDF1D5F0EB30E77BCA97CA90
:10046B0009CB974ACB199C406F4B7025E620E021B6
:10047B008066187D08C3CA97CA09CB97CB199CD342
:10048B00C633C6CA33CACB33CB3350C9DDE7D5F03D
:10049B00E1D3E4C636C608C636C608C636C608C695
:1004AB0036C61818188031C3CA97CA09CB97CB190F
:1004BB009CB34097C633C6CA33CACB33CB33DD3478
:1004CB00D5F02EC6A2E0C640C8CA27CA09CB371939
:1004DB004A70BECB3CB480B90808E63308E63360FB
:1004EB001F181818D0E0FAD0E0FBD0E0FCD0E0FDEC
:1004FB0022187D08CA27CA09CB37CB193CD3808079
:10050B0013F618E4B67F11F618B6FF0EF618C604EC
:10051B0070D20808768080CAF618F618F680C518CF
:10052B001818E4C396F608E496F608E496F608E481
:10053B0096F622E7F60809E7F60809E7F60809E751
:10054B00F622780079008008E82401F8E93400F9F4
:10055B00C3E89AE99B40F1780079008008E8240110
:10056B00F8E93400F9C3E89AE99B40F17800790087
:10057B008008E82401F8E93400F9C3E89AE99B40C4
:10058B00F1780079008008E82401F8E93400F9C318
:10059B00E89AE99B40F1780079008008E82401F89B
:1005AB00E93400F9C3E89AE99B40F12253C6BFE551
:1005BB00BEA2E650FA53C6B843BE0475F10075F3FC
:1005CB003C43868043C50B43C222D2E94386407429
:1005DB008465A86004D2F08002C2F0A2F0E433F884
:1005EB0079002275FE03D290D291E5BBF875BB0062
:1005FB0075B6BF75B43043B440227C007D008015C6
:10060B00E7F5C1740129F9A2E950FCC2E9EC240118
:10061B00FCED3400FDC3EC9AED9BA2D265D03340C8
:10062B00DF22C0E0E878337601087600D290F8D06C
:10063B00E032058105811205B71205EED2AFD290DB
:10064B007E140207207900E581A881E9F6E5812473
:10065B00FFF8E6C454F0C0E0E58124FFF8D0E0C613
:10066B0046F6E58124FFF8E6FA7B00EA75F000A474
:10067B00CAA8F075F001A428F875F000EBA428FBCC
:10068B00E581A881E6F87900EA28F508EB39F50948
:10069B00E5093395E0F50AF50B7808120061792727
:1006AB00780C12053E7808790C1201C4792B780C62
:1006BB0012053E7808790C12034485080C85090D48
:1006CB00850A0E850B0F780C1200D9E50C75F00A14
:1006DB0084E5F024307822F6792F780C12053E78D9
:1006EB0008790C1201C478081200D9E50875F00AD4
:1006FB0084E5F024307824F67A067B007921120603
:10070B00057A307B7512054DC2907A307B751205D8
:10071B004D1E43B440EEC39401404A7833740166D6
:10072B0070040874006670ED78337600087600D29A
:10073B0090E581A881A6BAE58124FFF8A6BBE581E7
:10074B0024FFF8E8F9F8E58124FFF8E6C4540FC953
:10075B00F8E9F6E581A881E6C3940150030206503F
:07076B00790102065280FE35
:0400000500000043B4
:00000001FF
